{
  "_format": "hh-sol-artifact-1",
  "contractName": "SwapToken",
  "sourceName": "contracts/SwapTokens.sol",
  "abi": [
    {
      "inputs": [
        {
          "internalType": "contract IERC20",
          "name": "_nairaTokenCAddr",
          "type": "address"
        },
        {
          "internalType": "contract IERC20",
          "name": "_usdtTokenCAddr",
          "type": "address"
        }
      ],
      "stateMutability": "nonpayable",
      "type": "constructor"
    },
    {
      "anonymous": false,
      "inputs": [
        {
          "indexed": true,
          "internalType": "address",
          "name": "from",
          "type": "address"
        },
        {
          "indexed": true,
          "internalType": "address",
          "name": "to",
          "type": "address"
        },
        {
          "indexed": false,
          "internalType": "uint256",
          "name": "amount",
          "type": "uint256"
        }
      ],
      "name": "SwapSuccessful",
      "type": "event"
    },
    {
      "anonymous": false,
      "inputs": [
        {
          "indexed": true,
          "internalType": "address",
          "name": "owner",
          "type": "address"
        },
        {
          "indexed": true,
          "internalType": "enum SwapToken.Currency",
          "name": "_currencyName",
          "type": "uint8"
        },
        {
          "indexed": false,
          "internalType": "uint256",
          "name": "amount",
          "type": "uint256"
        }
      ],
      "name": "WithdrawSuccessful",
      "type": "event"
    },
    {
      "inputs": [],
      "name": "getContractBalance",
      "outputs": [
        {
          "internalType": "uint256",
          "name": "contractUsdtbal_",
          "type": "uint256"
        },
        {
          "internalType": "uint256",
          "name": "contractNairabal_",
          "type": "uint256"
        }
      ],
      "stateMutability": "view",
      "type": "function"
    },
    {
      "inputs": [],
      "name": "nairaToken",
      "outputs": [
        {
          "internalType": "contract IERC20",
          "name": "",
          "type": "address"
        }
      ],
      "stateMutability": "view",
      "type": "function"
    },
    {
      "inputs": [
        {
          "internalType": "address",
          "name": "_from",
          "type": "address"
        },
        {
          "internalType": "uint256",
          "name": "_amount",
          "type": "uint256"
        }
      ],
      "name": "swapNairaToUsdt",
      "outputs": [],
      "stateMutability": "nonpayable",
      "type": "function"
    },
    {
      "inputs": [
        {
          "internalType": "address",
          "name": "_from",
          "type": "address"
        },
        {
          "internalType": "uint256",
          "name": "_amount",
          "type": "uint256"
        }
      ],
      "name": "swapUsdtToNaira",
      "outputs": [],
      "stateMutability": "nonpayable",
      "type": "function"
    },
    {
      "inputs": [],
      "name": "usdtToken",
      "outputs": [
        {
          "internalType": "contract IERC20",
          "name": "",
          "type": "address"
        }
      ],
      "stateMutability": "view",
      "type": "function"
    },
    {
      "inputs": [
        {
          "internalType": "enum SwapToken.Currency",
          "name": "_currencyName",
          "type": "uint8"
        },
        {
          "internalType": "uint256",
          "name": "_amount",
          "type": "uint256"
        }
      ],
      "name": "withdraw",
      "outputs": [],
      "stateMutability": "nonpayable",
      "type": "function"
    }
  ],
  "bytecode": "0x608060405234801561001057600080fd5b50604051611f0f380380611f0f83398181016040528101906100329190610170565b816000806101000a81548173ffffffffffffffffffffffffffffffffffffffff021916908373ffffffffffffffffffffffffffffffffffffffff16021790555080600160006101000a81548173ffffffffffffffffffffffffffffffffffffffff021916908373ffffffffffffffffffffffffffffffffffffffff16021790555033600260006101000a81548173ffffffffffffffffffffffffffffffffffffffff021916908373ffffffffffffffffffffffffffffffffffffffff16021790555050506101b0565b600080fd5b600073ffffffffffffffffffffffffffffffffffffffff82169050919050565b600061012b82610100565b9050919050565b600061013d82610120565b9050919050565b61014d81610132565b811461015857600080fd5b50565b60008151905061016a81610144565b92915050565b60008060408385031215610187576101866100fb565b5b60006101958582860161015b565b92505060206101a68582860161015b565b9150509250929050565b611d50806101bf6000396000f3fe608060405234801561001057600080fd5b50600436106100625760003560e01c80633e2b4bf8146100675780633f489914146100835780635e8f48261461009f5780636f9fb98a146100bb578063a98ad46c146100da578063fe2371cb146100f8575b600080fd5b610081600480360381019061007c91906113f9565b610116565b005b61009d6004803603810190610098919061145e565b6106d4565b005b6100b960048036038101906100b491906113f9565b610abf565b005b6100c3611080565b6040516100d19291906114ad565b60405180910390f35b6100e2611251565b6040516100ef9190611535565b60405180910390f35b610100611277565b60405161010d9190611535565b60405180910390f35b600260149054906101000a900460ff1615610166576040517f08c379a000000000000000000000000000000000000000000000000000000000815260040161015d906115ad565b60405180910390fd5b6001600260146101000a81548160ff021916908315150217905550600073ffffffffffffffffffffffffffffffffffffffff163373ffffffffffffffffffffffffffffffffffffffff16036101f0576040517f08c379a00000000000000000000000000000000000000000000000000000000081526004016101e790611619565b60405180910390fd5b60008111610233576040517f08c379a000000000000000000000000000000000000000000000000000000000815260040161022a90611685565b60405180910390fd5b6000620f42408261024491906116d4565b90506000600160009054906101000a900473ffffffffffffffffffffffffffffffffffffffff1673ffffffffffffffffffffffffffffffffffffffff166370a08231336040518263ffffffff1660e01b81526004016102a39190611725565b602060405180830381865afa1580156102c0573d6000803e3d6000fd5b505050506040513d601f19601f820116820180604052508101906102e49190611755565b905081811015610329576040517f08c379a0000000000000000000000000000000000000000000000000000000008152600401610320906117ce565b60405180910390fd5b6000600160009054906101000a900473ffffffffffffffffffffffffffffffffffffffff1673ffffffffffffffffffffffffffffffffffffffff1663dd62ed3e33306040518363ffffffff1660e01b81526004016103889291906117ee565b602060405180830381865afa1580156103a5573d6000803e3d6000fd5b505050506040513d601f19601f820116820180604052508101906103c99190611755565b90508281101561040e576040517f08c379a000000000000000000000000000000000000000000000000000000000815260040161040590611863565b60405180910390fd5b6000600160009054906101000a900473ffffffffffffffffffffffffffffffffffffffff1673ffffffffffffffffffffffffffffffffffffffff166323b872dd8730876040518463ffffffff1660e01b815260040161046f93929190611883565b6020604051808303816000875af115801561048e573d6000803e3d6000fd5b505050506040513d601f19601f820116820180604052508101906104b291906118f2565b9050806104f4576040517f08c379a00000000000000000000000000000000000000000000000000000000081526004016104eb9061196b565b60405180910390fd5b836003600060028081111561050c5761050b61198b565b5b600281111561051e5761051d61198b565b5b8152602001908152602001600020600082825461053b91906119ba565b92505081905550600061054f85600261129b565b905060008060009054906101000a900473ffffffffffffffffffffffffffffffffffffffff1673ffffffffffffffffffffffffffffffffffffffff1663a9059cbb33846040518363ffffffff1660e01b81526004016105af9291906119ee565b6020604051808303816000875af11580156105ce573d6000803e3d6000fd5b505050506040513d601f19601f820116820180604052508101906105f291906118f2565b905080156106af578160036000600160028111156106135761061261198b565b5b60028111156106255761062461198b565b5b8152602001908152602001600020600082825461064291906119ba565b925050819055503073ffffffffffffffffffffffffffffffffffffffff168873ffffffffffffffffffffffffffffffffffffffff167ff936e5e0223c6f3d59c5cad7723aaa9b2b2d68a54065aed03ad5e38675f1f306886040516106a69190611a17565b60405180910390a35b5050505050506000600260146101000a81548160ff0219169083151502179055505050565b600260009054906101000a900473ffffffffffffffffffffffffffffffffffffffff1673ffffffffffffffffffffffffffffffffffffffff163373ffffffffffffffffffffffffffffffffffffffff1614610764576040517f08c379a000000000000000000000000000000000000000000000000000000000815260040161075b90611a7e565b60405180910390fd5b600081116107a7576040517f08c379a000000000000000000000000000000000000000000000000000000000815260040161079e90611aea565b60405180910390fd5b6000600360008460028111156107c0576107bf61198b565b5b60028111156107d2576107d161198b565b5b815260200190815260200160002054905081811015610826576040517f08c379a000000000000000000000000000000000000000000000000000000000815260040161081d90611b56565b60405180910390fd5b8260028111156108395761083861198b565b5b6001600281111561084d5761084c61198b565b5b036109565760008054906101000a900473ffffffffffffffffffffffffffffffffffffffff1673ffffffffffffffffffffffffffffffffffffffff1663a9059cbb33846040518363ffffffff1660e01b81526004016108ad9291906119ee565b6020604051808303816000875af11580156108cc573d6000803e3d6000fd5b505050506040513d601f19601f820116820180604052508101906108f091906118f2565b508260028111156109045761090361198b565b5b3373ffffffffffffffffffffffffffffffffffffffff167e8953c98bf4b420f992a98f3bfa55d17f4e19076029765d02cb1f9a99276868846040516109499190611a17565b60405180910390a3610a84565b8260028111156109695761096861198b565b5b60028081111561097c5761097b61198b565b5b03610a8357600160009054906101000a900473ffffffffffffffffffffffffffffffffffffffff1673ffffffffffffffffffffffffffffffffffffffff1663a9059cbb33846040518363ffffffff1660e01b81526004016109de9291906119ee565b6020604051808303816000875af11580156109fd573d6000803e3d6000fd5b505050506040513d601f19601f82011682018060405250810190610a2191906118f2565b50826002811115610a3557610a3461198b565b5b3373ffffffffffffffffffffffffffffffffffffffff167e8953c98bf4b420f992a98f3bfa55d17f4e19076029765d02cb1f9a9927686884604051610a7a9190611a17565b60405180910390a35b5b6040517f08c379a0000000000000000000000000000000000000000000000000000000008152600401610ab690611bc2565b60405180910390fd5b600260149054906101000a900460ff1615610b0f576040517f08c379a0000000000000000000000000000000000000000000000000000000008152600401610b06906115ad565b60405180910390fd5b6001600260146101000a81548160ff021916908315150217905550600073ffffffffffffffffffffffffffffffffffffffff163373ffffffffffffffffffffffffffffffffffffffff1603610b99576040517f08c379a0000000000000000000000000000000000000000000000000000000008152600401610b9090611619565b60405180910390fd5b60008111610bdc576040517f08c379a0000000000000000000000000000000000000000000000000000000008152600401610bd390611685565b60405180910390fd5b6000670de0b6b3a764000082610bf291906116d4565b905060008060009054906101000a900473ffffffffffffffffffffffffffffffffffffffff1673ffffffffffffffffffffffffffffffffffffffff166370a08231336040518263ffffffff1660e01b8152600401610c509190611725565b602060405180830381865afa158015610c6d573d6000803e3d6000fd5b505050506040513d601f19601f82011682018060405250810190610c919190611755565b905082811015610cd6576040517f08c379a0000000000000000000000000000000000000000000000000000000008152600401610ccd906117ce565b60405180910390fd5b60008060009054906101000a900473ffffffffffffffffffffffffffffffffffffffff1673ffffffffffffffffffffffffffffffffffffffff1663dd62ed3e33306040518363ffffffff1660e01b8152600401610d349291906117ee565b602060405180830381865afa158015610d51573d6000803e3d6000fd5b505050506040513d601f19601f82011682018060405250810190610d759190611755565b905083811015610dba576040517f08c379a0000000000000000000000000000000000000000000000000000000008152600401610db190611863565b60405180910390fd5b60008060009054906101000a900473ffffffffffffffffffffffffffffffffffffffff1673ffffffffffffffffffffffffffffffffffffffff166323b872dd8730876040518463ffffffff1660e01b8152600401610e1a93929190611883565b6020604051808303816000875af1158015610e39573d6000803e3d6000fd5b505050506040513d601f19601f82011682018060405250810190610e5d91906118f2565b905080610e9f576040517f08c379a0000000000000000000000000000000000000000000000000000000008152600401610e9690611c2e565b60405180910390fd5b836003600060016002811115610eb857610eb761198b565b5b6002811115610eca57610ec961198b565b5b81526020019081526020016000206000828254610ee791906119ba565b925050819055506000610efb85600161129b565b90506000600160009054906101000a900473ffffffffffffffffffffffffffffffffffffffff1673ffffffffffffffffffffffffffffffffffffffff1663a9059cbb33846040518363ffffffff1660e01b8152600401610f5c9291906119ee565b6020604051808303816000875af1158015610f7b573d6000803e3d6000fd5b505050506040513d601f19601f82011682018060405250810190610f9f91906118f2565b9050801561105b578160036000600280811115610fbf57610fbe61198b565b5b6002811115610fd157610fd061198b565b5b81526020019081526020016000206000828254610fee91906119ba565b925050819055503073ffffffffffffffffffffffffffffffffffffffff168873ffffffffffffffffffffffffffffffffffffffff167ff936e5e0223c6f3d59c5cad7723aaa9b2b2d68a54065aed03ad5e38675f1f306886040516110529190611a17565b60405180910390a35b5050505050506000600260146101000a81548160ff0219169083151502179055505050565b600080600260009054906101000a900473ffffffffffffffffffffffffffffffffffffffff1673ffffffffffffffffffffffffffffffffffffffff163373ffffffffffffffffffffffffffffffffffffffff1614611113576040517f08c379a000000000000000000000000000000000000000000000000000000000815260040161110a90611a7e565b60405180910390fd5b600160009054906101000a900473ffffffffffffffffffffffffffffffffffffffff1673ffffffffffffffffffffffffffffffffffffffff166370a08231306040518263ffffffff1660e01b815260040161116e9190611725565b602060405180830381865afa15801561118b573d6000803e3d6000fd5b505050506040513d601f19601f820116820180604052508101906111af9190611755565b915060008054906101000a900473ffffffffffffffffffffffffffffffffffffffff1673ffffffffffffffffffffffffffffffffffffffff166370a08231306040518263ffffffff1660e01b815260040161120a9190611725565b602060405180830381865afa158015611227573d6000803e3d6000fd5b505050506040513d601f19601f8201168201806040525081019061124b9190611755565b90509091565b600160009054906101000a900473ffffffffffffffffffffffffffffffffffffffff1681565b60008054906101000a900473ffffffffffffffffffffffffffffffffffffffff1681565b60006002808111156112b0576112af61198b565b5b8260028111156112c3576112c261198b565b5b036112dd57610640836112d691906116d4565b905061135a565b600160028111156112f1576112f061198b565b5b8260028111156113045761130361198b565b5b0361131e57610640836113179190611c7d565b9050611359565b6040517f08c379a000000000000000000000000000000000000000000000000000000000815260040161135090611cfa565b60405180910390fd5b5b92915050565b600080fd5b600073ffffffffffffffffffffffffffffffffffffffff82169050919050565b600061139082611365565b9050919050565b6113a081611385565b81146113ab57600080fd5b50565b6000813590506113bd81611397565b92915050565b6000819050919050565b6113d6816113c3565b81146113e157600080fd5b50565b6000813590506113f3816113cd565b92915050565b600080604083850312156114105761140f611360565b5b600061141e858286016113ae565b925050602061142f858286016113e4565b9150509250929050565b6003811061144657600080fd5b50565b60008135905061145881611439565b92915050565b6000806040838503121561147557611474611360565b5b600061148385828601611449565b9250506020611494858286016113e4565b9150509250929050565b6114a7816113c3565b82525050565b60006040820190506114c2600083018561149e565b6114cf602083018461149e565b9392505050565b6000819050919050565b60006114fb6114f66114f184611365565b6114d6565b611365565b9050919050565b600061150d826114e0565b9050919050565b600061151f82611502565b9050919050565b61152f81611514565b82525050565b600060208201905061154a6000830184611526565b92915050565b600082825260208201905092915050565b7f5265656e7472616e6379206e6f7420616c6c6f77656400000000000000000000600082015250565b6000611597601683611550565b91506115a282611561565b602082019050919050565b600060208201905081810360008301526115c68161158a565b9050919050565b7f5a65726f206e6f7420616c6c6f77656400000000000000000000000000000000600082015250565b6000611603601083611550565b915061160e826115cd565b602082019050919050565b60006020820190508181036000830152611632816115f6565b9050919050565b7f43616e6e6f742073776170207a65726f20616d6f756e74000000000000000000600082015250565b600061166f601783611550565b915061167a82611639565b602082019050919050565b6000602082019050818103600083015261169e81611662565b9050919050565b7f4e487b7100000000000000000000000000000000000000000000000000000000600052601160045260246000fd5b60006116df826113c3565b91506116ea836113c3565b92508282026116f8816113c3565b9150828204841483151761170f5761170e6116a5565b5b5092915050565b61171f81611385565b82525050565b600060208201905061173a6000830184611716565b92915050565b60008151905061174f816113cd565b92915050565b60006020828403121561176b5761176a611360565b5b600061177984828501611740565b91505092915050565b7f596f75722062616c616e6365206973206e6f7420656e6f756768000000000000600082015250565b60006117b8601a83611550565b91506117c382611782565b602082019050919050565b600060208201905081810360008301526117e7816117ab565b9050919050565b60006040820190506118036000830185611716565b6118106020830184611716565b9392505050565b7f546f6b656e20616c6c6f77616e636520746f6f206c6f77000000000000000000600082015250565b600061184d601783611550565b915061185882611817565b602082019050919050565b6000602082019050818103600083015261187c81611840565b9050919050565b60006060820190506118986000830186611716565b6118a56020830185611716565b6118b2604083018461149e565b949350505050565b60008115159050919050565b6118cf816118ba565b81146118da57600080fd5b50565b6000815190506118ec816118c6565b92915050565b60006020828403121561190857611907611360565b5b6000611916848285016118dd565b91505092915050565b7f457865637574696f6e206661696c656400000000000000000000000000000000600082015250565b6000611955601083611550565b91506119608261191f565b602082019050919050565b6000602082019050818103600083015261198481611948565b9050919050565b7f4e487b7100000000000000000000000000000000000000000000000000000000600052602160045260246000fd5b60006119c5826113c3565b91506119d0836113c3565b92508282019050808211156119e8576119e76116a5565b5b92915050565b6000604082019050611a036000830185611716565b611a10602083018461149e565b9392505050565b6000602082019050611a2c600083018461149e565b92915050565b7f4f6e6c79206f776e65722063616e206163636573730000000000000000000000600082015250565b6000611a68601583611550565b9150611a7382611a32565b602082019050919050565b60006020820190508181036000830152611a9781611a5b565b9050919050565b7f62616c616e6365206973206c6573730000000000000000000000000000000000600082015250565b6000611ad4600f83611550565b9150611adf82611a9e565b602082019050919050565b60006020820190508181036000830152611b0381611ac7565b9050919050565b7f496e73756666696369656e7420636f6e74726163742062616c616e6365000000600082015250565b6000611b40601d83611550565b9150611b4b82611b0a565b602082019050919050565b60006020820190508181036000830152611b6f81611b33565b9050919050565b7f546f6b656e206e6f7420646566696e6564000000000000000000000000000000600082015250565b6000611bac601183611550565b9150611bb782611b76565b602082019050919050565b60006020820190508181036000830152611bdb81611b9f565b9050919050565b7f4578637574696f6e206661696c65640000000000000000000000000000000000600082015250565b6000611c18600f83611550565b9150611c2382611be2565b602082019050919050565b60006020820190508181036000830152611c4781611c0b565b9050919050565b7f4e487b7100000000000000000000000000000000000000000000000000000000600052601260045260246000fd5b6000611c88826113c3565b9150611c93836113c3565b925082611ca357611ca2611c4e565b5b828204905092915050565b7f556e737570706f727465642063757272656e6379000000000000000000000000600082015250565b6000611ce4601483611550565b9150611cef82611cae565b602082019050919050565b60006020820190508181036000830152611d1381611cd7565b905091905056fea26469706673582212206deaf3e570ac84601c394ce85355d5ef50c7e2446b535a75d17fbd730b1f7a4064736f6c634300081b0033",
  "linkReferences": {},
  "deployedLinkReferences": {}
}